:020000040000FA
:080000000002040000000000F2
:020000040000FA
:040008007E04000072
:020000040000FA
:04000C007E0400006E
:020000040000FA
:040010007E0400006A
:020000040000FA
:040014007E04000066
:020000040000FA
:040018007E04000062
:020000040000FA
:04001C007E0400005E
:020000040000FA
:040020007E0400005A
:020000040000FA
:040024007E04000056
:020000040000FA
:040028007E04000052
:020000040000FA
:04002C007E0400004E
:020000040000FA
:040030007E0400004A
:020000040000FA
:040034007E04000046
:020000040000FA
:040038007E04000042
:020000040000FA
:04003C007E0400003E
:020000040000FA
:040040007E0400003A
:020000040000FA
:040044007E04000036
:020000040000FA
:040048007E04000032
:020000040000FA
:04004C007E0400002E
:020000040000FA
:040050007E0400002A
:020000040000FA
:040054002C04000078
:020000040000FA
:040058005804000048
:020000040000FA
:04005C007E0400001E
:020000040000FA
:040060007E0400001A
:020000040000FA
:040064007E04000016
:020000040000FA
:040068007E04000012
:020000040000FA
:04006C007E0400000E
:020000040000FA
:040070007E0400000A
:020000040000FA
:040074007E04000006
:020000040000FA
:040078007E04000002
:020000040000FA
:04007C007E040000FE
:020000040000FA
:040080007E040000FA
:020000040000FA
:040084007E040000F6
:020000040000FA
:040088007E040000F2
:020000040000FA
:04008C007E040000EE
:020000040000FA
:040090007E040000EA
:020000040000FA
:040094007E040000E6
:020000040000FA
:040098007E040000E2
:020000040000FA
:04009C007E040000DE
:020000040000FA
:0400A0007E040000DA
:020000040000FA
:0400A4007E040000D6
:020000040000FA
:0400A8007E040000D2
:020000040000FA
:0400AC007E040000CE
:020000040000FA
:0400B0007E040000CA
:020000040000FA
:0400B4007E040000C6
:020000040000FA
:0400B8007E040000C2
:020000040000FA
:0400BC007E040000BE
:020000040000FA
:0400C0007E040000BA
:020000040000FA
:0400C4007E040000B6
:020000040000FA
:0400C8007E040000B2
:020000040000FA
:0400CC007E040000AE
:020000040000FA
:0400D0007E040000AA
:020000040000FA
:0400D4007E040000A6
:020000040000FA
:0400D8007E040000A2
:020000040000FA
:0400DC007E0400009E
:020000040000FA
:0400E0007E0400009A
:020000040000FA
:0400E4007E04000096
:020000040000FA
:0400E8007E04000092
:020000040000FA
:0400EC007E0400008E
:020000040000FA
:0400F0007E0400008A
:020000040000FA
:0400F4007E04000086
:020000040000FA
:0400F8007E04000082
:020000040000FA
:0400FC007E0400007E
:020000040000FA
:040100007E04000079
:020000040000FA
:040104007E04000075
:020000040000FA
:040108007E04000071
:020000040000FA
:04010C007E0400006D
:020000040000FA
:040110007E04000069
:020000040000FA
:040114007E04000065
:020000040000FA
:040118007E04000061
:020000040000FA
:04011C007E0400005D
:020000040000FA
:040120007E04000059
:020000040000FA
:040124007E04000055
:020000040000FA
:040128007E04000051
:020000040000FA
:04012C007E0400004D
:020000040000FA
:040130007E04000049
:020000040000FA
:040134007E04000045
:020000040000FA
:040138007E04000041
:020000040000FA
:04013C007E0400003D
:020000040000FA
:040140007E04000039
:020000040000FA
:040144007E04000035
:020000040000FA
:040148007E04000031
:020000040000FA
:040208007E04000070
:020000040000FA
:04020C007E0400006C
:020000040000FA
:040210007E04000068
:020000040000FA
:040214007E04000064
:020000040000FA
:040218007E04000060
:020000040000FA
:04021C007E0400005C
:020000040000FA
:040220007E04000058
:020000040000FA
:040224007E04000054
:020000040000FA
:040228007E04000050
:020000040000FA
:04022C007E0400004C
:020000040000FA
:040230007E04000048
:020000040000FA
:040234007E04000044
:020000040000FA
:040238007E04000040
:020000040000FA
:04023C007E0400003C
:020000040000FA
:040240007E04000038
:020000040000FA
:040244007E04000034
:020000040000FA
:040248007E04000030
:020000040000FA
:04024C007E0400002C
:020000040000FA
:040250007E04000028
:020000040000FA
:040254002C04000076
:020000040000FA
:040258005804000046
:020000040000FA
:04025C007E0400001C
:020000040000FA
:040260007E04000018
:020000040000FA
:040264007E04000014
:020000040000FA
:040268007E04000010
:020000040000FA
:04026C007E0400000C
:020000040000FA
:040270007E04000008
:020000040000FA
:040274007E04000004
:020000040000FA
:040278007E04000000
:020000040000FA
:04027C007E040000FC
:020000040000FA
:040280007E040000F8
:020000040000FA
:040284007E040000F4
:020000040000FA
:040288007E040000F0
:020000040000FA
:04028C007E040000EC
:020000040000FA
:040290007E040000E8
:020000040000FA
:040294007E040000E4
:020000040000FA
:040298007E040000E0
:020000040000FA
:04029C007E040000DC
:020000040000FA
:0402A0007E040000D8
:020000040000FA
:0402A4007E040000D4
:020000040000FA
:0402A8007E040000D0
:020000040000FA
:0402AC007E040000CC
:020000040000FA
:0402B0007E040000C8
:020000040000FA
:0402B4007E040000C4
:020000040000FA
:0402B8007E040000C0
:020000040000FA
:0402BC007E040000BC
:020000040000FA
:0402C0007E040000B8
:020000040000FA
:0402C4007E040000B4
:020000040000FA
:0402C8007E040000B0
:020000040000FA
:0402CC007E040000AC
:020000040000FA
:0402D0007E040000A8
:020000040000FA
:0402D4007E040000A4
:020000040000FA
:0402D8007E040000A0
:020000040000FA
:0402DC007E0400009C
:020000040000FA
:0402E0007E04000098
:020000040000FA
:0402E4007E04000094
:020000040000FA
:0402E8007E04000090
:020000040000FA
:0402EC007E0400008C
:020000040000FA
:0402F0007E04000088
:020000040000FA
:0402F4007E04000084
:020000040000FA
:0402F8007E04000080
:020000040000FA
:0402FC007E0400007C
:020000040000FA
:040300007E04000077
:020000040000FA
:040304007E04000073
:020000040000FA
:040308007E0400006F
:020000040000FA
:04030C007E0400006B
:020000040000FA
:040310007E04000067
:020000040000FA
:040314007E04000063
:020000040000FA
:040318007E0400005F
:020000040000FA
:04031C007E0400005B
:020000040000FA
:040320007E04000057
:020000040000FA
:040324007E04000053
:020000040000FA
:040328007E0400004F
:020000040000FA
:04032C007E0400004B
:020000040000FA
:040330007E04000047
:020000040000FA
:040334007E04000043
:020000040000FA
:040338007E0400003F
:020000040000FA
:04033C007E0400003B
:020000040000FA
:040340007E04000037
:020000040000FA
:040344007E04000033
:020000040000FA
:040348007E0400002F
:020000040000FA
:10040000EFF82100AE7E22000E01880000000000FF
:10041000000020000000E000020032000001200087
:100420002002880014000700360107000000E000E9
:1004300003003A00006B2800010020000200370092
:100440000000200001002000810F70000100320038
:1004500014000700000020000000E000020032004D
:100460000000020000000000488C020000000000B4
:100470000040DA000000FE004440A900203B2000BC
:100480000000E0000300320000002000A00188000E
:100490004440A800000006008A1F78008B1F7800E7
:1004A0000000060091018800800478000000EB0045
:1004B0001A003700E284440032A0B4009905BA0063
:1004C000E284440032A0B4009906BA00E2844400F9
:1004D00032A0B4000006EB00476FDE00FD07B2005B
:1004E000636CE10003003A00EBFF07000000EB0043
:1004F0000A003700606CE10004003A00005DEB0088
:100500008B05E900FDFF3E00040037006168E10053
:10051000010032000086EB000B00070019C7BA008B
:100520001905BA000E04E00003003A000A00E000DA
:10053000E0FF3A0000000600FE07B2009E018800BE
:100540008A047800F5FF3700395DBA008B05E900B1
:100550000C003200295DBA008B05E900080032006A
:100560000C00E00003003A00E284440032A0B40032
:10057000F5FF370019DDBA008B05E900FAFF3A00F4
:100580008904E800E184440032A0B40000000600C1
:10059000000000000000000000000000000000005B
:1005A000000000000000000000000000000000004B
:1005B000000000000000000000000000000000003B
:1005C000000000000000000000000000000000002B
:100850000000000000000000809FBE00821F7800A2
:100860003211800040FA800021FA80008270780006
:1008700040FA80000000E80040FA880031FA800069
:10088000810F5000040032008560A9004F017800FC
:100890004F00BE00004006009560A9008560A900D9
:1008A0004F0178004F00BE0000400600FAFF3700FD
:1008B000809FBE0060FA80000000E80060FA8800B7
:1008C00071FA8000810F50000700320051FA800059
:1008D000614078000080FB00201188008580A9001D
:1008E0004F00BE00004006009580A9008580A90049
:1008F0004F00BE0000400600FBFF37000040DA005A
:100900000000FE000000050003F0A200889FBE006A
:100910008A9FBE008C1F78004A01070051013300F6
:100920006450E1004F0032006420E10052003200C8
:1009300003826C0007003B000905D0000306D000CD
:10094000820F54000C065D000200390002003200E4
:1009500089017800030678008582550004003D0077
:100960000003FD008103FD008502EA008B85420043
:10097000840F720002003B0060001000E08018004D
:100980006011B8000005EB007A28E1000A00390088
:1009900006007800C75DDD00F707B20087807500AC
:1009A0002D003700828171000A0178006105600026
:1009B0008180D1000080D3008502E900F9FF3B006F
:1009C000060440008784480002003B0060041400D5
:1009D000E0841C000988A300070032008A817100AE
:1009E00082817100610164008904D1000884D30010
:1009F0008B05E800170037000978A30013003A00C0
:100A00000B00E000130034008B05E90008044400EB
:100A100089844C000A4474000978A3000D003A0050
:100A20000B00E000070034008B05E90008044400D7
:100A300089844C0001003A000B0020000978A300D3
:100A4000F7FF32000001EB000200370082817100E5
:100A50000A017800C00007000CF0A70001F0A00018
:100A6000090137006420E10002003A00838F6C0026
:100A7000090133000801BE000200BE000201370078
:100A8000889FBE008A9FBE008C1F7800ED00070083
:100A9000F400330003866C006450E1002E00320045
:100AA0006420E100330032006150E1002F00320089
:100AB0006120E1003100320085855500EB07B00070
:100AC0000900200008042000050037000804440045
:100AD00089844C000A0031000603430087834B00E1
:100AE0000001530081815B00F8FF33000203BE0068
:100AF0000800A0000804440089844C00F6FF390077
:100B0000C639DD00830173000100320013002000AC
:100B10008904D1000884D3000998A300050032009D
:100B20000800A7000300A0008904D1000884D300B6
:100B30008B05E8008904D1000884D3000001EB0094
:100B40000281D2008400070001F0A1000CF0A70090
:100B500001F0A000CC0037006420E100CE0032009C
:100B60000801BE000200BE00F7FF37006120E1006F
:100B7000C90032006000B800F3FF37000000200019
:100B800001F82700F0FF370014002000B001370003
:100B9000F4FF2F00AE0137000003BE0094000700F1
:100BA0006011B8000470A70007F0A10007F8A300C7
:100BB00017003A006509B1000D0032000D00350044
:100BC000860220000628E10003003500030028000B
:100BD0006000B8000200050000004000818048006D
:100BE00002014900838149008502E900FAFF3A00C9
:100BF00000000600F88F4200050034008100D1009B
:100C00000080D3008502E800FCFF3A0000000600E7
:100C10006011B8008000EB00000005000001BE007C
:100C2000730007000470A70003F0A10003F8A300FD
:100C300013003A006509B1001000320009003500C8
:100C40006928E100020035000100280000000500CD
:100C500000004000818048008502E900FCFF3A0066
:100C600000000600F88F4200050035008100D10029
:100C70000080D3008502E800FCFF3A000000060077
:100C80008000EB00000005004F89DE008201780043
:100C90008A013700889FBE008A9FBE0000827000D4
:100CA0000402710004827100260032000004BE00BC
:100CB0000200BE006011B8006B0920009502200000
:100CC0000182CF000A0039000541B1000082CF0047
:100CD000070039000541B1000982CF000400390046
:100CE0000541B1000882CF00010039000541B10083
:100CF00005425200120032000A003B00828171005E
:100D0000610164008100D1000080D3008984D30098
:100D10000884D3008B05E8000442E800F7FF3A009E
:100D2000070037000804440089844C000000480094
:100D3000818048008B05E9000442E900F9FF3A0090
:100D4000050007004F05BE004F04BE00000006006E
:100D50006011B800CFFF370081002000618055008E
:100D60000B003D000B00200061FE2F000100E100A0
:100D70001D00340082817100610164008904D1008A
:100D80000884D3000000E800FAFF3A007100200058
:100D9000610064000300700002006000090032007E
:100DA00061044400E0844C000988A500050032007D
:100DB0008B05E8006808E10002003A008904D100D0
:100DC0000884D300F20F20000258E10005003D0026
:100DD000C75DDD00F907B200898075000800780062
:100DE000000006000BF827008B00780000000500CB
:100DF000C70ADE00F107B200F50FB20008003200AA
:100E0000E1CF4200020032000170A0002400050082
:100E1000810F700001003200040805004400050045
:100E2000810F700002003A00140005008502E900FD
:100E30000000400081C04800FCFF3B000170A000A2
:100E4000240005000004BE00E9FF07000003BE0007
:100E50000405BE000200BE00E5FF0700844F7500D8
:100E6000000006000200BE006450E10005003600EC
:100E70006420E100020036000968A30001003A0086
:100E80000800BE000160A0004F0678004F05BE00BC
:100E90004F04BE0000000600F0FF2F00F1FF270006
:100EA000F9FF3700889FBE008A9FBE008C1F780024
:100EB000E4FF0700EBFF330003866C006450E100A1
:100EC000240032006420E100270032006150E1007C
:100ED000220032006120E100210032008B854200B7
:100EE000EB07B1000134B800003AB8000804420032
:100EF00089844A00013AB8000030B8008880400078
:100F000009014A00040033000000400081804800CD
:100F1000020149008B05E900C909DD008301700069
:100F20000100320013002000C814DE004814DD0068
:100F30004709DE001200B200C808DE000884700015
:100F400085FF070001F0A1000CF0A70001F0A00050
:100F5000CDFF37006120E100CFFF32000801BE0065
:100F60000200BE00F7FF37006150E100FCFF3A00CD
:100F7000C9FF37006022B800060220000000D00040
:100F80008180D2000482D2008582D2000000A000BD
:100F90000202520083825A00030031000202420022
:100FA00083824A000000A1000603E900F3FF3A0033
:100FB00000000600EFFF07000400BE00000006006E
:100FC000889FBE008A9FBE0030044200B0844A0061
:100FD00030054B0090854B006000B1000898BE00C2
:100FE0000A90BE000440E10005C8E10006D0E1001F
:100FF00007D8E10002003100680040001008E80056
:101000004F05BE004F04BE0000000600889FBE00D2
:101010008A9FBE003004BE002005BE0004185400A4
:1010200005985C0006185D0007985D00110020001F
:101030000440E10005C8E10006D0E10007D8E10066
:10104000010039008000EB00108810004F05BE0041
:101050004F04BE00000006001200FA00889FBE0088
:101060008A9FBE008C9FBE00E0B79F00F1B79F0033
:1010700082BF9F0093BF9F000605BE000404BE0010
:101080000000EB00D0B79F00C0B79F00B0B79F0033
:10109000A0B79F0090B79F000006EB005FB19700DC
:1010A000CFB09700820141003FB097000200E000FE
:1010B00004003D00370007007E805700C0FF070096
:1010C00003003700330007007E805700CFFF070082
:1010D000DFB697000D00E0000C0035006FB29700FE
:1010E000FFB297000FBB97009FBB97001000200036
:1010F000010020006011B8000002720081827200BD
:1011000002037300838373001B0007000C06E800D2
:1011100001042000810F5600E0FF3A000D00E000BE
:1011200004003D000802BE000A03BE007E80570096
:10113000A3FF07005FA897000000E00005003A0049
:101140001FB29700AFB297003FB39700CFB397009D
:10115000090007006FB09700FFB097000FB9970024
:101160009FB997004F06BE004F05BE004F04BE005A
:101170000080FA00000006000100070000000600E1
:10118000A4B79F00B5B79F00C6B79F00D7B79F0011
:10119000000006004F09DE0082817100B3B79F0096
:1011A0004F01DE008180400082807000A1B79F0067
:1011B0008FB097004F09DE00000040000200700071
:1011C00090B79F007FA897004F01DE00818040000C
:1011D0008280700081B79F000D0007004F3ADE004B
:1011E0000000400004007000F0AF9F0008000700FE
:1011F0000402420085824A0006034B0087834B00AD
:10120000DFFF07000802BE000A03BE000000060060
:101210002FB29700BFB297004FB39700DFB397008C
:1012200000000600881F780018002000881F780042
:1012300089FF07008F87E9004F047800000006004F
:10124000801FEB0084FF07008F87E9000000060085
:10125000889FBE008A9FBE00841F7800F9FE0700A9
:101260004F00780011003300F0FF2F00838F6C00D7
:1012700006003B00040565000A00A70008003700CF
:1012800009F0A6001000200008003700820F54006B
:10129000838F5C00030039001000200001003E0035
:1012A0000000200009F0A7000000EA004F05BE0082
:1012B0004F04BE000000E00000000600881F780018
:1012C000030478000300E00007003D006000100008
:1012D000E080180060011900E081190002003B0065
:1012E00001F02D00030037006AFE070008F0A70098
:1012F00001F0A0004F047800000006008001780093
:1013000002003700B15978000201E9000200E00054
:10131000FCFF3A0000000600800178000200370060
:10132000815978000201E9000200E000FCFF3A0068
:0413300000000600B3
:020000040000FA
:10133400525500004E000000524500005455000074
:10134400524E0000000000004C49000053540000BD
:101354000045000058490000540000004E450000BC
:10136400570000004C4500005400000049460000AE
:1013740000540000484500004E000000454C0000A9
:1013840053450000004700004F5400004F00000088
:10139400474F000053550000420000005245000032
:1013A40054550000524E000000520000454D00000C
:1013B40000500000524900004E5400000049000053
:1013C4004E50000055540000004600004F520000EB
:1013D400005400004F0000004E4500005854000027
:1013E4000052000045410000440000004441000058
:1013F40054410000005300005441000052540000C6
:1014040052000000535400004152000054000000F8
:10141400535400004F500000520000005354000089
:101424004F50000000530000454E000044000000EF
:1014340052450000434500004956000045000000A5
:10144400434C00004B0000004441000054000000E5
:10145400424900005452000045410000440000008D
:101464004144000043000000415500005850000072
:10147400494E000000500000535500000050000089
:10148400554C00004C55000050000000444500003D
:101494004C41000059000000415500005800000074
:1014A400465200004551000000440000555400001D
:1014B400590000004D410000435200004F0000005D
:1014C400454E000044000000B4890000B8890000C3
:1014D400BB890000C0890000C5890000CA890000DA
:1014E400D0890000D7890000DB890000E189000071
:1014F400E7890000EB890000EE890000F389000011
:10150400F8890000FD890000048A00000A8A0000AE
:10151400108A0000158A00001A8A0000228A00003E
:10152400268A00002A8A0000328A0000368A0000D7
:101534003D8A0000418A0000488A00004E8A00006B
:10154400528A0000578A00005C8A0000628A000008
:1015540000000000002E0000003A000020000000FF
:10156400005E0000BCE20000613F0000DD8300007B
:10157400C29C00007E200000A3FD00001F4100006B
:101584009DC30000217F0000FCA20000401E00005B
:101594005F010000E3BD00003E60000082DC00004B
:1015A400237D00009FC10000421C0000FEA000003B
:1015B400E1BF00005D03000080DE00003C6200002B
:1015C400BEE00000025C0000DF810000633D00001B
:1015D4007C220000C09E00001D430000A1FF00000B
:1015E40046180000FAA40000277900009BC50000FB
:1015F40084DA000038660000E5BB000059070000EB
:10160400DB85000067390000BAE4000006580000DA
:1016140019470000A5FB000078260000C49A0000CA
:10162400653B0000D9870000045A0000B8E60000BA
:10163400A7F900001B450000C69800007A240000AA
:10164400F8A60000441A000099C70000257B00009A
:101654003A64000086D800005B050000E7B900008A
:101664008CD20000306E0000EDB30000510F00007A
:101674004E100000F2AC00002F71000093CD00006A
:10168400114F0000ADF30000702E0000CC9200005A
:10169400D38D00006F310000B2EC00000E5000004A
:1016A400AFF10000134D0000CE900000722C00003A
:1016B4006D330000D18F00000C520000B0EE00002A
:1016C400326C00008ED00000530D0000EFB100001A
:1016D400F0AE00004C12000091CF00002D7300000A
:1016E400CA94000076280000ABF5000017490000FA
:1016F40008560000B4EA000069370000D58B0000EA
:1017040057090000EBB50000366800008AD40000D9
:1017140095CB000029770000F4AA000048160000C9
:10172400E9B70000550B000088D60000346A0000B9
:101734002B75000097C900004A140000F6A80000A9
:10174400742A0000C8960000154B0000A9F7000099
:10175400B6E800000A540000D78900006B35000089
:1017640049090000004F000009000000480900007A
:10177400004C000009000000000D00000A280000D1
:1017840000780000002900003E000000082000004E
:10179400080000002E2000000042000075730000C5
:1017A4002050000069720000617400006520000090
:1017B40076330000004300006F6D00006D7500007B
:1017C4006E69000074790000204600006972000010
:1017D4006D7700006172000065200000763700001C
:1017E4002E310000202D0000206700006F6F0000E4
:1017F4002E6700006C2F0000674300007A51000040
:101804006E57000020000000290000003E00000088
:101814001B5B0000440000001B5B00000044000050
:10182400001B00005B430000001B00005B32000053
:101834004B0D000000430000001B00005B32000061
:10184400440000002E2000003C00000000000000C6
:101854000100000000000000020000000000000081
:101864000400000000000000080000000000000068
:101874001000000000000000200000000000000034
:101884004000000000000000800000000000000094
:1018940080000000000000000001000000000000C3
:1018A400000200000000000000040000000000002E
:1018B400000800000000000000100000000000000C
:1018C40000200000000000000040000000000000B4
:1018D4000080000000000000000000000100000083
:1018E40000000000020000000000000004000000EE
:1018F40000000000080000000000000010000000CC
:101904000000000014340000040D000082060000F2
:1019140040030000A0010000CF00000067000000A9
:1019240044000000220000007F00000000000000CE
:10193400000000002C01000000000000580200001C
:1019440000000000B0040000000000006009000076
:1019540000000000C012000000000000802500000C
:10196400000000004038000000000000004B0000B0
:1019740000000000807000000000000000960000DD
:1019840000000000C0DA00000000000000E10000D8
:101994000000000000C200000100000000F400008C
:1019A4000100000000E800000300000030300000E7
:1019B400302C000000300000300000000808000057
:1019C4000808000008000000003000003132000068
:1019D4003334000035360000373800003941000048
:1019E400424300004445000046000000314100002D
:1019F4004C53000001420000507600003300000008
:101A0400210000000010000000230000000F00006F
:101A140042400000400500004102000000000000B8
:101A24000000000000690000D05D00006DDB0000D4
:101A34005D6B0000CB5D000069D000005D0000001C
:101A440000000000181C00001D0C0000161A000005
:101A54000B0F00001E1700001B00000014500000B4
:101A64000108000001030000000000000035000030
:101A74003F62000061000000290000000000000037
:101A84000020000029000000000000000000000009
:041A9400000000004E
:020000040000FA
:101A9800421680008000610050BB280002003A0016
:101AA800D86A04000000000020BB2800D86A04009F
:101AB80000000000FCFF3700521680008000610023
:101AC800B0BB280002003A00D86A040000000000F9
:101AD80080BB2800D86A040000000000FCFF370023
:101AE800889FBE00C0CB2900010020008E8A02001A
:101AF8000000000080132900010020008E8A0200E7
:101B0800000000008089290001002000388A0200B6
:101B18000000000090F521009080FB0000032000E9
:101B28000088B9004002B00081C621006100780039
:101B38000000010040CC290001002000388A020082
:101B48000000000000402000D1FF07000004200032
:101B5800CFFF070000082000CDFF0700001020007D
:101B6800CBFF070000202000C9FF0700E0BB2800CA
:101B7800F86A02000000000000E3290001002000CC
:101B8800388A02000000000021E3A800900020002D
:101B9800546A020000000000EE6D02000000000020
:101BA80028EA2900090020000800BE00388A02003F
:101BB8000000000090C0B300307002000000000078
:101BC800A0002000546A020000000000EE6D020030
:101BD800000000000800BE00388A02000000000073
:101BE80090C0B3003070020000000000B000200078
:101BF800546A020000000000EE6D020000000000C0
:101C08000800BE00388A02000000000090C0B3003F
:101C18003070020000000000C0002000546A02007A
:101C280000000000EE6D0200000000000800BE0089
:101C3800388A02000000000090C0B3003070020033
:101C48000000000021E3A900004020009AFF0700DF
:101C58000004200098FF07000008200096FF0700F6
:101C68000010200094FF07000020200092FF0700CA
:101C7800E0BB2800F86A0200000000004F04BE0024
:101C880000000600881F7800D3F480000300780065
:101C9800F007B20084E1210064407800F1CCB30081
:101CA80081404000E8CF500018003E000080FB0053
:101CB8000003B1008300E800F107B20064C17800B6
:101CC80006CDB30086424100E9CF52000C003E0029
:101CD8008381E8006A00B9000281FB00000041002E
:101CE8000003B10083007800F107B20064C17800F6
:101CF8008301E80086424100E9CF5200F5FF360033
:101D0800D1F488004F0478000000060001C3B30036
:101D1800814F500006003200E0F521001074A00049
:101D28000000EB004F04780000000600F7FF3700C2
:101D38008300E800F107B20064C1780025C6B3004B
:101D4800854F51001E00320025C4B300854F510055
:101D58001B00320085C7B300854F510038003200A0
:101D680085C5B300854F51003500320080425100CF
:101D78000000EB00E9CF5200E1FF3E000281FB00CA
:101D880000FD2F00020040008381E80006CDB3006B
:101D98006A00B900000041000003B1008300780028
:101DA800F107B20064C178008301E800864241006F
:101DB800E9CF5200D2FF3E000281FB00F4FF37005A
:101DC8008380E800F107B20064C1780006CDB30053
:101DD800864241000000EB00E1CF5200C8FF3E0000
:101DE800E3814100000040000281FB000200400046
:101DF8000003B10083007800F107B20064C17800E5
:101E08008301E80086424100E1CF5200BCFF3E005A
:101E1800000040000281FB00020040000003B10006
:101E280083007800F107B20064C178008301E800FC
:101E380086424100E1CF5200EAFF3600B0FF37008A
:101E48008381E8000000EB0006CDB300F7CBB300B8
:101E5800F8C9B30083007800F107B20064C17800C4
:101E680086424100E9CF5200130036008742410004
:101E7800E5CF52000300360088424100E5CF52000A
:101E88009FFF3E000254A00002F278004400DD00EB
:101E98007005B1000281FB00020040008301E800E8
:101EA80083007800F107B20064C1780086424100DF
:101EB800E9CF5200EDFF3E004400DD000003B10011
:101EC8000281FB00020040008301E800F4FF3700B4
:101ED800881F78008A9FBE0000457800D0F48000F3
:101EE8000000E800F007B200D0F4880082E1210089
:101EF800E241780001C2B30081CF510006003A00E8
:101F08000000E800F007B200E240780083CF5000FC
:101F1800FBFF3200D0F488005AFF07000004780065
:101F28000A04E00017003A0008407800B06C02008C
:101F380000000000CAE329000B0020000A00BE00D0
:101F4800388A02000000000008407800A46C0200F3
:101F5800000000000A00BE00388A020000000000ED
:101F680008407800166B020000000000E0BB280063
:101F7800F86A0200000000004F05BE004F04780018
:101F880000000600D0F52100904078000800780095
:101F9800946A0200000000000004780008407800FD
:101FA800B06C020000000000CAE329000B0020000A
:101FB8000A00BE00388A02000000000008407800CD
:101FC800A46C0200000000000A00BE00388A02006B
:101FD8000000000008407800166B020000000000B6
:101FE800E0BB2800F86A0200000000004F05BE00B0
:101FF8004F04780000000600E2FF3700D1F48000AB
:102008000100E800F007B20082E12100E241780017
:1020180010002000A2C3B30082CF5100010032009B
:10202800000006008180E800F107B200D1F48800C2
:1020380014FF0700D1F480008100E900F107B20025
:10204800D1F4880000000600D1F480000100E80007
:10205800F007B20082E12100E24178000000EB00C5
:10206800B2C3B30082CF5100010032000000060065
:102078008180E800F107B200D1F4880001FF070071
:10208800D1F480008100E900F107B200D1F48800A2
:1020980000000600D0F4800082E12100E2417800CF
:1020A80001C2B30081CF510006003A000000E800E9
:1020B800F007B200E240780083CF5000FBFF320007
:1020C800D0F4880000000600F2874700889FBE0011
:1020D8008A9FBE008C9FBE008E1F78000004BE0041
:1020E8000205780003077800DBC2B3008CC7B30091
:1020F8000DCDB300E07A290001002000C0B79F0091
:10210800D1B79F00F0BB2800D86A02000000000089
:102118000800E0004300350008407800A46C020085
:102128000000000050BC2800D86A0200000000002F
:102138008000EB00E1B79F00F1B79F002870020014
:102148000000000080407800EDCF500016003200FB
:10215800EDCF50003D003E00E8CF50005600320061
:10216800EACF5000100032000DC04000E94F500087
:102178003C003E00FFB19700E38F51005A00340045
:1021880070C0B30030700200000000004000200062
:10219800F0B79F002870020000000000804078001F
:1021A800EDCF5000EAFF3A00E0BB2800F86A0200D1
:1021B80000000000FFB097000100E0002E00320090
:1021C8008000EB007FB197000200E00008003400B7
:1021D8007E805700020240006A09B900B080FB0007
:1021E8000103B10082804000840F5000FAFF3A00DA
:1021F800818F540002003C00810F55004C003D00C7
:102208004FB09700DFB097008E8A020000000000F0
:10221800F0BB2800D86A0200000000000800E000B7
:10222800BDFF3D0030BC2800D86A02000000000055
:1022380050BC2800D86A0200000000008000EB00B3
:10224800E1B79F00F1B79F00BCFF37008BCF50006C
:10225800100032008CCF5000C3FF3A000E00E0009F
:1022680004003A0070C0B3003070020000000000A3
:10227800B2FF37000084EB00080078004F077800B1
:102288004F06BE004F05BE004F04BE002F01B1002F
:1022980000000600FFB097000100E000F1FF3A00DF
:1022A8000B4078003070020000000000120020008F
:1022B800E2B79F00A1FF37007FB197000200E0005E
:1022C80015003A00EFB197000300E000E5FF320087
:1022D80080BC2800D86A0200000000000000EB0063
:1022E800E0B79F0095FF37000140780081BF9F004D
:1022F80030700200000000008FB89700014078009D
:102308007E815700FFB1970000F179008301E80052
:10231800F3B79F0089FF37000201E900F2B79F0079
:1023280080BC2800D86A02000000000083FF370044
:10233800EFB197000300E000090032000104EA0051
:10234800080078004F0778004F06BE004F05BE0012
:102358004F04BE002F01B10000000600CDFF37007A
:10236800010078004F0778004F06BE004F05BE00F9
:102378004F04BE002F01B10000000600C5FF370062
:102388000E00FA00889FBE008A9FBE008C9FBE0088
:10239800D1F480008104E900F907B2001800200098
:1023A800898F50000E0032008BE121008B067800E7
:1023B8006BC07C000004E00005003A000906E80054
:1023C800FC07B2006D407E000004E00038003A00CF
:1023D8008904E900F907B200818F5400F4FF3A003C
:1023E800E0BB2800F86A02000000000080D629003F
:1023F800010020008E8A0200000000001300200067
:1024080008017800830078000000EB002EFF070029
:102418008000E800E18F50004700360000004000CF
:10242800FA805700E101780003007800F007B20055
:102438008BE121006B4178000204E0004800320083
:10244800C4F480000000EB0084004000F107B200F3
:1024580082F578000000E80083004000F107B20030
:102468006BC178000204E000F7FF3A000402E900BB
:10247800F407B200D4F488000482E80000004200A7
:10248800F007B200C0F488000000E900F007B200CD
:102498008040EB00817578000000EB004F06BE001D
:1024A8004F05BE004F04BE000080FA000000060081
:1024B80008407800A46C020000000000C0BC28009E
:1024C800D86A0200000000006D407E000004E000B1
:1024D800090032000985E8003070020000000000A1
:1024E8000A007800F007B2006B4078000A05E8009F
:1024F8000004E000F8FF3A00080044000C017800EE
:10250800FA805700823078000804E800E70F54008A
:10251800B3FF3200E0BB2800F86A020000000000A8
:10252800D1F480008904E900F907B200818F5400D2
:102538009FFF3A00AAFF3700E0BB2800F86A0200B4
:1025480000000000100020004F06BE004F05BE002E
:102558004F04BE000080FA0000000600D4FF3700D8
:102568000000EB00C4F480000402E900F407B200A4
:10257800D4F488000482E80000004200F007B200AA
:10258800C0F488000000E900F007B2008040EB00CA
:10259800817578000000EB00C0FF3700889FBE00FF
:1025A8008A9FBE008C1F7800D0F480000000E800ED
:1025B800F007B200D0F4880082E12100E2417800FF
:1025C80001C2B30081CF510006003A000000E800C4
:1025D800F007B200E240780083CF5000FBFF3200E2
:1025E800D0F48800A7FD07000000E00042003A0090
:1025F8000005EB008CC621000B0320000A40E80010
:10260800A46C020000000000C0BC2800D86A0200C8
:1026180000000000090320000BD0B9008002B000C0
:1026280088C6210000004600F86A02000000000089
:102638000A05E800E90F5500F0FF3A00E09229008A
:10264800010020008E8A020000000000E0F5210051
:102658001074A100130020000A017800830078009C
:102668000300780098FE07000005E9000000E80074
:10267800E10F5000520036009BF521001B80FB0043
:102688000980B9002002B00068007800000001004D
:10269800106A0200000000008A4D78000A80FB00E2
:1026A8000980B900FE04400068807C000000010039
:1026B80000A22900010020008E8A0200000000000C
:1026C8000A00E00034003A0080DF29000100200001
:1026D8008E8A020000000000C0F480000000E900BB
:1026E800F007B200D0F488004F0678004F05BE000E
:1026F8004F04BE00000006000004E900E80F540083
:1027080018003C009BF521001B80FB000A032000F9
:102718000A80B9002002B00089C62100690078004B
:1027280000000100106A020000000000884D7800D7
:102738000880FB000A85B9007E05450069007D0018
:10274800000001000800E000DFFF3200C222A800FC
:1027580080DF2900010020008E8A020000000000AE
:10276800DDFF3700E0932900010020008E8A020077
:1027780000000000C0F480000000E900F007B2008B
:10278800D0F488004F0678004F05BE004F04BE0005
:1027980000000600D8FF3700C222A8002024290024
:1027A800010020008E8A02000000000080DF29005E
:1027B800010020008E8A020000000000C6FF3700DA
:1027C800C0BB2900010020008E8A02000000000022
:1027D800C0F480000000E900F007B200D0F48800DF
:1027E8004F0678004F05BE004F04BE0000000600EB
:1027F800C1FF3700889FBE008A9FBE00F0BC28003A
:10280800D86A020000000000E0C2B3003070020085
:102818000000000060F521001040780030700200D0
:102828000000000091FA8000F0442000808F5000E2
:10283800B3003200E0BB2800F86A02000000000084
:10284800D0BD2800D86A020000000000B0C5B3005F
:102858003070020000000000190020000004EB00A6
:102868008BC621000A0320000800E00007003A0098
:1028780000C92100D86A0200000000000804E8002E
:102888008904E8000800E000F9FF320000C2B30044
:1028980030700200000000000AC0B9008002B000D9
:1028A80000804500D86A020000000000E88F54004C
:1028B800F2FF3600D0C5B3003070020000000000FF
:1028C80000BD290001002000388A02000000000035
:1028D800A1BF2A000000EB00B26E02000000000059
:1028E800000478004840DE00A46C020000000000EC
:1028F800E0C2B30030700200000000000840780019
:10290800A46C020000000000E0BB2800F86A020086
:1029180000000000E0D6290001002000388A0200EB
:102928000000000090FA8000EA6C0200000000003D
:10293800E0D9290001002000388A020000000000C8
:10294800A0FA8000EA6C02000000000000C2290022
:1029580001002000388A02000000000091FA80007F
:10296800F0442000808F50003F003200A0E9290089
:1029780001002000388A020000000000A0FA800050
:1029880021042300810F50003F003200810F5000C6
:102998001400360031042300810F50004900320032
:1029A800E3804000810F50002000320040E42900FD
:1029B80001002000388A02000000000060C02800E2
:1029C800F86A020000000000E06A29000100200007
:1029D8008E8A0200000000004F05BE004F04BE00B2
:1029E80000000600F103B100810F5000EFFF3A002C
:1029F80020E9290001002000388A020000000000B8
:102A080060C02800F86A020000000000E06A29009F
:102A1800010020008E8A0200000000004F05BE0061
:102A28004F04BE0000000600EEFF370080E92900D1
:102A380001002000388A02000000000060C0280061
:102A4800F86A020000000000E06A29000100200086
:102A58008E8A0200000000004F05BE004F04BE0031
:102A680000000600DFFF3700C0E929000100200050
:102A7800388A020000000000A0FA80002104230028
:102A8800810F5000C1FF3A0040E9290001002000F1
:102A9800388A02000000000060C02800F86A0200BE
:102AA80000000000E06A2900010020008E8A020070
:102AB800000000004F05BE004F04BE0000000600E5
:102AC800C8FF370060E9290001002000388A0200A9
:102AD8000000000060C02800F86A02000000000042
:102AE800E06A2900010020008E8A02000000000030
:102AF8004F05BE004F04BE0000000600B9FF3700B6
:102B0800E097290001002000388A02000000000038
:102B1800E0BB2800F86A020000000000D0BD2800D1
:102B2800D86A020000000000B0C5B300307002008F
:102B380000000000190020000004EB008BC62100F3
:102B48000A03200048FF37002F0DB000889FBE0001
:102B58008A9FBE008C9FBE008E1F78000000EB008D
:102B6800D0F48800C0F4880091F521008048EB007B
:102B7800E2F521001274A100C3E921004700090011
:102B88008059EB0020F78800B0B79F0080B79F00FE
:102B9800D0B79F00A4D4290005002000E4AF9F000F
:102BA800F5AF9F0080DF290001002000F01F9F0083
:102BB80081279F0002E0290003002000D22F9F00F8
:102BC800E32F9F0044D7290005002000F42F9F0021
:102BD80085379F0060BC290001002000F0A79F00F6
:102BE80081AF9F0002AA290003002000D2979F000E
:102BF800E3979F00C49C290005002000A4AF9F0014
:102C0800B5AF9F00E09B290001002000B0A79F00FE
:102C1800C1A79F00E28F290003002000D2A79F00D0
:102C2800E3A79F008457290005002000F48F9F0028
:102C380085979F00406C290001002000F0179F0035
:102C4800811F9F006278290003002000F2979F00EF
:102C5800839F9F00A479290005002000B49F9F004E
:102C6800C59F9F00207C290001002000F03F9F00A5
:102C780081879F00E28E290003002000D29F9F00D9
:102C8800E39F9F00E48D290005002000949F9F008A
:102C9800A59F9F00C0FE280001002000B0979F005C
:102CA800C1979F00E299290003002000D21F9F00CE
:102CB800E31F9F00849E29000500200094279F00A1
:102CC800A5279F0080AB290001002000F0379F0056
:102CD800813F9F000259290003002000B2379F005E
:102CE800C3379F00A49D290005002000B4879F00DA
:102CF800C5879F002C7729000D002000805A2900E5
:102D080001002000B02F9F00C12F9F00826329007F
:102D180003002000921F9F00A31F9F0064882900C2
:102D280005002000D43F9F00E53F9F00C0DF290039
:102D380001002000D0879F00E1879F00C2C92900B9
:102D480003002000D28F9F00E38F9F00EA902900A4
:102D58000B00200004B029000500200094979F0074
:102D6800A5979F008074290001002000B03F9F00B4
:102D7800C13F9F0002A2290003002000D2279F0024
:102D8800E3279F0084AE290005002000948F9F0050
:102D9800A58F9F0020EA290001002000D0379F005E
:102DA800E1379F0002D529000300200092A79F0069
:102DB800A3A79F0084E8290005002000F4279F00AE
:102DC800852F9F00E0E829000100200090379F0030
:102DD800A1379F0062D5290003002000F29F9F00C1
:102DE80083A79F00C4DE290005002000C4AF9F0010
:102DF800D5AF9F00C0D5290001002000903F9F005B
:102E0800A13F9F0022D629000300200092879F003F
:102E1800A3879F00E4B9290005002000F4879F00DC
:102E2800858F9F0080BA290001002000B08F9F0085
:102E3800C18F9F0042B9290003002000922F9F00F4
:102E4800A32F9F0024BB290005002000B41F9F006A
:102E5800C51F9F0040CA290001002000B0279F001D
:102E6800C1279F00C2AA290003002000D2179F0093
:102E7800E3179F00E891290009002000BA179F0076
:102E8800CB179F0095F521009580FB0000032000DB
:102E98000088B9008002B00081C62100008040008F
:102EA800D86A020000000000A2F521001201780093
:102EB800640061005A003A0080C02800D86A020005
:102EC800000000008001EB00E3B79F003FB79700C8
:102ED8000805BE0020F780000000E0001B0032005B
:102EE8000000E90020F788007800B900C4E9210053
:102EF800644078000004E00012003200C1F4800051
:102F08000004EB0085E1210080F2780030700200B7
:102F1800000000000804E800C1F480008100E80017
:102F2800F107B200C1F4880022F780007811B900D7
:102F380002004400C2E92100624078000004E00079
:102F4800F0FF3A000000EB0020F78800766F0200DF
:102F5800000000000004E0002A003A00E3F5210028
:102F68009341780064C06100F8FF320094F52100B5
:102F78001480FB00080320000880B9007A00400094
:102F880085C6210065007800000001000004E0000B
:102F9800EEFF320091F521001180FB000880B90096
:102FA8008002B00082C6210002004000D86A0200F8
:102FB8000000000080C02800D86A0200000000005D
:102FC800D8F48000C0F48000800F5400DFFF320086
:102FD80083E1210063407C003070020000000000A3
:102FE800F807B2000804E800C0F48000800F54001D
:102FF800F7FF3A00766F0200000000000004E000CE
:10300800D6FF32004C700200000000000004E0000F
:103018000F0032005270020000000000ADFF3700C0
:103028006FA89700FFA89700388A020000000000E8
:1030380080C02800D86A0200000000008001EB0070
:10304800E3B79F003FB797000805BE00A1FF370010
:103058002870020000000000004478000880FB008F
:103068008000EB00F4072000840F5000E08F580028
:1030780036003600C9F480000900E800F007B20005
:10308800D1F48000810F5000EF003200FF4F540050
:10309800ED003600E0C7B300804F5400EA003E0060
:1030A800890F5700820A3200E0C02800D86A02005F
:1030B800000000000E805400F007B200A46C02006B
:1030C80000000000D0C12800D86A020000000000FB
:1030D800C9F480008E00E900F107B200818F540026
:1030E8000E0032000A01BE008105780084E121004B
:1030F80009004200E4C27C001540980064C07C00CE
:103108000004E0006E023A008904E900F907B20001
:103118008B8F5400F5FF3A000205BE000840780086
:10312800307002000000000080E1210008707F007C
:103138000E07E800FE07B200C0F480000000E800B7
:10314800F007B200C0F4880062FF37000060010099
:103158001102370001023700EF013700C5FF3700C1
:10316800C501370090003700BA013700C1FF3700AA
:103178008C013700BFFF3700B7003700BDFF3700AD
:10318800BCFF3700B40037000B023700B9FF370027
:1031980094003700B7FF3700B6FF3700B5FF370098
:1031A800B4FF3700B3FF3700B2FF3700B1FF370075
:1031B800B0FF3700AFFF3700AEFF370064003700BD
:1031C800ACFF3700ABFF3700AAFF3700A9FF370075
:1031D800A8FF3700A7FF3700A6FF3700A5FF370075
:1031E800A4FF3700A3FF3700A2FF3700A1FF370075
:1031F800A0FF37009FFF37009EFF37009DFF370075
:103208009CFF37009BFF37009AFF370099FF370074
:1032180098FF370097FF370096FF370095FF370074
:1032280094FF370093FF370092FF370091FF370074
:1032380090FF37008FFF37008EFF37008DFF370074
:103248008CFF37008BFF37008AFF370089FF370074
:1032580088FF370087FF370086FF370085FF370074
:1032680084FF370083FF370082FF370081FF370074
:1032780080FF37007FFF37007EFF37007DFF370074
:103288007CFF37007BFF37007AFF370079FF370074
:1032980078FF370077FF370076FF370075FF370074
:1032A80074FF370073FF370072FF370071FF370074
:1032B80070FF37006FFF37006EFF37006DFF370074
:1032C8006CFF37006BFF37006AFF370069FF370074
:1032D80068FF370067FF370066FF370065FF370074
:1032E80064FF370063FF370062FF370061FF370074
:1032F80060FF37005FFF37005EFF37005DFF370074
:103308005CFF37005BFF37005AFF370059FF370073
:1033180058FF370057FF370056FF370055FF370073
:1033280054FF370053FF370052FF370051FF370073
:1033380050FF37004FFF37004EFF37004DFF370073
:103348004CFF37004BFF37004AFF37004A01370070
:103358002870020000000000B1C5B300814F500082
:10336800DCFE3A00287002000000000011C4B3001F
:10337800814F50001B00320060013E00F0C0500039
:10338800814F500070013200E3C04000814F50006F
:10339800D0FE3A002870020000000000E1C7B30028
:1033A800814F5000CBFE3A00C8F48000880F5700C8
:1033B80025003200E0C02800D86A020000000000A2
:1033C8000E005400F007B200A46C020000000000D8
:1033D800D0C12800D86A020000000000CEF48000A6
:1033E800BCFE3700D6F480000604E900F807B200F6
:1033F800C0F4800080027800800F54001200320070
:103408008001EB0084E12100EFB3970082E1210005
:10341800E2407C000104E00097083A008800E900D7
:10342800F107B20064C178000204E0000300320032
:103438008301E800878F51001D073E0001047800D2
:10344800800F5400F1FF3A0070C0B30030700200E2
:10345800000000009FFE37000A04BE00C1F480008F
:103468000040EB0082E1210000F178008100E800D3
:10347800F107B200B1B79F00C1F48800E0BB280093
:10348800F86A020000000000C3F48000C3B79F0080
:10349800D2F48000E4F521001474A100A5F5210000
:1034A8009502780064806200A0083A00E2B79F00A5
:1034B8008041EB00A3D79F003F159700CF159700D9
:1034C80084E12100644079000080FB008000EB006B
:1034D800E5072000850F5000E08F58001F003600D8
:1034E800E5F521001574A0000201E800F207B2001A
:1034F800D2F488000000EB00E1F521001104E0009F
:1035080096003500C1F48000828F5000020032001E
:103518000000E000EAFF3200CFB29700D5F488003F
:10352800C5F4880095F521009580FB000003200074
:103538000088B9008002B00081C6210000804000E8
:10354800D86A020000000000A2F5210012017800EC
:103558006400610058FE3200B1FE370000600100CF
:10356800E1FF3700DEFF3700DDFF3700DCFF370003
:10357800DBFF3700DAFF3700D9FF3700D8FF370005
:10358800D7FF3700D6FF3700D7FF3700D4FF370003
:10359800D3FF3700D4FF3700D1FF3700D0FF370003
:1035A800CFFF3700CEFF3700CDFF3700CCFF370005
:1035B800CBFF3700CAFF3700C9FF3700C8FF370005
:1035C800C7FF3700C6FF3700C5FF3700C4FF370005
:1035D800C3FF3700C2FF3700C1FF3700C0FF370005
:1035E800C1FF3700440137007C0137006B01370009
:1035F80030023700160237004A023700B8FF37009A
:10360800D7013700B6FF3700B5FF3700B4FF3700E2
:10361800B5FF3700F2023700D5023700BF02370086
:103628005902370058023700570237005602370050
:103638005502370054023700530237005202370050
:103648005102370050023700A5FF3700A4FF3700AA
:1036580003033700F7023700A1FF37005C03370088
:10366800E40137002C0537009DFF370018053700A7
:103678000C0537009AFF370099FF370098FF37008D
:1036880097FF370096FF370095FF370094FF370004
:10369800F204370092FF370091FF370090FF3700A0
:1036A800A90437008EFF37008DFF370098043700D4
:1036B8008BFF37008AFF370089FF37006604370021
:1036C80087FF370086FF370085FF37005204370031
:1036D800CD043700BB0437002E0437001804370028
:1036E8007FFF370009043700D2033700C1033700D2
:1036F800AA0337007AFF3700FE053700EF053700C9
:10370800DE0537006605370075FF370074FF3700A0
:10371800510537004605370071FF3700200537008F
:103728000A0537006EFF370008063700FC0537002A
:103738006BFF37006AFF37008E0337006C033700D2
:1037480067FF370066FF370065FF3700570337000C
:103758004B03370039033700280337000800BE0041
:10376800388A020000000000D1F480006FB1970091
:10377800810F5100C507310002C05000A46C02003F
:1037880000000000E4F521001474A100E0BB28004B
:10379800F86A020000000000D2F480001000200047
:1037A80058FF3700D0F48000800F570026FF320002
:1037B800C0F48000800F5700F80732000E07E900B8
:1037C800FE07B200A0C02800D86A0200000000006E
:1037D800C0F480008004EB00800F57001000320016
:1037E8008E0078000104E80082E1210062407C003C
:1037F80000F178000004E00001003A0000C2B300C4
:1038080030700200000000008904E8008800780099
:10381800F107B200C0F48000808F5000F1FF3A0039
:103828000000E900F007B200C0F48800E0C02800FA
:10383800D86A02000000000009407800A46C020069
:103848000000000010C12800D86A02000000000033
:10385800A0FD3700C0F48000800F5700FAFE320048
:103868000E07E800FE07B20030C12800D86A02003F
:103878000000000097FD3700C0F48000800F57005B
:10388800F1FE32008E0078008004EB000104E800AD
:1038980083E1210063407C0080F178000004E000AF
:1038A80001003A0000C2B3003070020000000000BE
:1038B8008904E80088007800F107B200C0F48000AD
:1038C800808F5000F1FF3A008100E900F107B20053
:1038D800C1F48800E0C02800D86A02000000000097
:1038E80009407800A46C02000000000010C1280004
:1038F800D86A02000000000076FD370031C4B3002A
:10390800814F5000D3FF32002B0039008140E8007E
:10391800814F50006FFD3A000FB29700E40F52003C
:103928008C073C00D0F48000800F5700C6FE3200A0
:103938000E07E900FE07B200A0C02800D86A0200FE
:103948000000000063FD370028700200000000003E
:10395800E1C7B300814F50005EFD3A00D8F4800003
:10396800880F5700B8FE3200E0C02800D86A02006D
:103978000000000008005700F007B200A46C020025
:103988000000000010C12800D86A020000000000F2
:10399800DEF480004FFD37000FB097000000E8000C
:1039A80080B79F00F40F50004AFD3A008249020098
:1039B8000000000047FD3700D7F480008704E900C5
:1039C800F907B200C0F4800080027800808F5400AC
:1039D800130032008001EB0084E12100EFB0970072
:1039E8000103E90082E12100E2C07C000104E0005B
:1039F8001C073A008900E900F107B20064C17800A9
:103A08000204E000030032008301E800830F530042
:103A1800F805320081047800808F5400F1FF3A00E5
:103A28006FB19700E10F510087FE3A0070C128007E
:103A3800D86A02000000000093F521009380FB0083
:103A4800000320000088B9008002B00084C621006D
:103A580000004200D86A020000000000A5F521001D
:103A6800950278006480620027083A0080C0280028
:103A7800D86A020000000000CEF48000D0F4800074
:103A8800800F5700080032000041EB0081E121005F
:103A980082707F000E07E900FE07B200800F570012
:103AA800F9FF3A00CEF488000042EB0083E12100E0
:103AB80084717F008002EB00E5B79F0005FD3700A9
:103AC800F2B79F0083BF9F00307002000000000023
:103AD800F0C12800D86A0200000000008FB99700E2
:103AE8007FB197008904E900F907B2008B8F540071
:103AF8007EFD3A0088FD370040F90700000778008E
:103B08003F209700CF209700388A0200000000006D
:103B18000E00E0001400320092F521001280FB0034
:103B2800030320000380B9007800400084C6210008
:103B380064007800000001008040780000C3B300F2
:103B48000104E000010032000040E800307002008B
:103B58000000000000C2B300307002000000000046
:103B68000E07E900ECFF3A005F109700EF1097008E
:103B78008E8A020000000000D2F480000201E800F2
:103B8800F207B200D2F488000000EB00E1F5210052
:103B98001104E0005BFE3D00F0FE37005F809700F7
:103BA800EF8097008E8A0200000000004270020039
:103BB800000000000000FE00D2F480000201E800CE
:103BC800F207B200D2F488000000EB00E1F5210012
:103BD8001104E0004BFE3D00E0FE3700E4F5210053
:103BE8001474A0000200E800F007B20085E121008B
:103BF800654078000004E000120032008280E8008E
:103C080014C0B30023C2B300834F50004B003200EE
:103C180001007800F007B20085E1210065407800D6
:103C28008100E8000004E000F7FF3A00700020007F
:103C38000022DD00E1F52100114078000074A100A8
:103C480084487000E3F521001304E00026FE3500E7
:103C58007F9897008FA09700388A02000000000024
:103C680020C2B3003070020000000000D0F48000D1
:103C78000000E800F007B20084E12100E440780089
:103C880022C2B30082CF50001C0032000E03200075
:103C9800D0F4880001407800307002000000000075
:103CA800D0F4800085E12100654078000080FB00A9
:103CB800E2F5210012417800E84061009B053A00D6
:103CC80094F521001481FB000E91B90068014100B0
:103CD80085C62100E500790001000100D0F48000CC
:103CE8000000E800F007B20082E12100E24078001D
:103CF80023C2B30083CF5000E5FF3A00D0F4880018
:103D080020C2B3003070020000000000E0BB2800B1
:103D1800F86A020000000000D2F480000201E80006
:103D2800F207B200D2F488000000EB00E1F52100B0
:103D38001104E000F3FD3D0088FE37000042EB006F
:103D480001007800F007B20085E1210065407800A5
:103D58008100E8000004E000ABFF3A00B3FF370041
:103D68000200E800F007B200D0F48800C5F70700A9
:103D780080017800D1F4800085E1210065C17800D8
:103D880000C2B300804F510008003A00024078009A
:103D98008100E800F107B20084E1210064C17800E5
:103DA800804F5100FAFF3200D1F4880001007800FA
:103DB800F007B20085E12100E540780090C2B30029
:103DC80080CF5000FE063200E3F521001374A000F6
:103DD800D2F480000201E800F207B200D2F48800B1
:103DE8000000EB00E1F521001104E000C5FD3D00F5
:103DF8005AFE370081F80700000778000E00E0003F
:103E08005DFF32000A00BE00388A02000000000090
:103E1800BE600200000000008040780000C3B300CC
:103E28000104E000010032000040E80030700200A8
:103E380000000000E0BB2800F86A02000000000053
:103E48000E07E900EFFF3A00D2F480004BFF37007D
:103E58006AF80700000778001FA09700AFA0970036
:103E6800388A0200000000000E007800586B02003B
:103E7800000000001F309700AF3097008E8A0200C4
:103E8800000000000E007800D26E02000000000062
:103E9800D2F480000201E800F207B200D2F48800F0
:103EA8000000EB00E1F521001104E00095FD3D0064
:103EB8002AFE3700208B0200000000000004E0000A
:103EC8002DFF320010C0B300A57F2200804A780081
:103ED8005F889700EF8897008E8A02000000000034
:103EE80040062000D26E020000000000106A0200A6
:103EF8000000000042700200000000000000FE0008
:103F0800D2F480000201E800F207B200D2F488007F
:103F18000000EB00E1F521001104E00079FD3D000F
:103F28000EFE370035F80700000778001FA097003D
:103F3800AFA09700388A0200000000000E00780049
:103F4800586B0200000000007F2097008F28970020
:103F58008E8A0200000000000E0078000E6F02003A
:103F680000000000D2F480000201E800F207B2006D
:103F7800D2F488000000EB00E1F521001104E00014
:103F880060FD3D00F5FD37007F9897008FA09700F2
:103F9800388A0200000000003AF707008000780025
:103FA800D0F480000000E900F007B200D0F48800E7
:103FB800F1B79F0011F807000007E80022F8070092
:103FC800FFB097000000E00006003200D2F52100A3
:103FD80000497800E80F5000200634008201E8000C
:103FE8001354A00098B79F00A9B79F0081047800D8
:103FF8009A179F00AB179F000E07E90037003200A1
:10400800090078003E6D020000000000E5F521007F
:10401800154078000058A300AA05320004C1B30077
:10402800D3F52100934F120009003200B0C3B3004A
:104038003070020000000000D5F52100154078001E
:10404800A46C020000000000E1F521001140780096
:104058000038A3000B053A0093F521001380FB00FC
:10406800040320000480B9006800400085C62100D0
:10407800E50078000900780001000100800578005B
:1040880000C2B300307002000000000002C4B30098
:10409800E1F5210011406100D7FF32004FA89700D9
:1040A800DFA89700388A020000000000E3F521002D
:1040B8009341780068C061000A053A000B00780057
:1040C8003E6D02000000000000C2B3003070020024
:1040D800000000000E07E900C9FF3A001FB497006E
:1040E800AFB497001F159700AF159700E0BB2800E5
:1040F800F86A020000000000D2F480000201E80023
:10410800F207B200D2F488000000EB00E1F52100CC
:104118001104E000FBFC3D0090FD37001F389700BC
:10412800AF3897008E8A02000000000095F5210044
:104138009580FB00000320000088B9006C00400057
:1041480081C621006100780000000100D2F48000DF
:104158000201E800F207B200D2F488000000EB0088
:10416800E1F521001104E000E6FC3D007BFD37008D
:104178001F289700AF289700388A02000000000027
:1041880092F521001280FB000E0320000E80B9007A
:104198007400400083C6210063007800000001001D
:1041A800800078000E4078000100E0000100320035
:1041B8000040E8003070020000000000D2F48000E7
:1041C8000201E800F207B200D2F488000000EB0018
:1041D800E1F521001104E000CAFC3D005FFD370055
:1041E8007F8097008F8897008E8A02000000000069
:1041F80094F521009480FB00000320000088B9009A
:104208007000400085C621006500780000000100AC
:10421800D2F480000201E800F207B200D2F488006C
:104228000000EB00E1F521001104E000B5FC3D00C1
:104238004AFD37000040EB0025F70700D2F4800064
:104248000201E800F207B200D2F488000000EB0097
:10425800E1F521001104E000AAFC3D003FFD370014
:10426800E5F521001574A0008201E800F307B2000B
:1042780081E1210061C079000004E00017003200EC
:1042880014C0B30011002000E5C3B300854F5000EF
:10429800460032008100E80002804000F007B200CA
:1042A80085E12100654078000004E000F6FF3A004F
:1042B800700020000022DD00E5F52100154078009F
:1042C8000074A10004407000804A7800FA8F500002
:1042D800020034000074A000804A7800E0F5210054
:1042E8001004E00080FC3500D3F4880065F6070070
:1042F80000077800D2F4800002007800F007B200CE
:1043080083E12100E3407800D0C3B30080CF5000A0
:10431800CD0532000E00E000BE053A00C1E92100DB
:104328001E0020000A01BE000805BE0081047800B6
:104338000E407800F2B79F0083BF9F00A46C020074
:104348000000000040C22800D86A020000000000F7
:1043580009007800D86A02000000000080C0280028
:10436800F86A0200000000000E07E800F884440024
:104378007FB197008FB99700E40F5700ECFF3A0020
:104388000A04BE000205BE00D2F480000201E80063
:10439800F207B200D2F488000000EB00E1F521003A
:1043A8001104E00057FC3D00ECFC37000042EB0034
:1043B8008100E80002804000F007B20085E121009A
:1043C800654078000004E000AFFF3A00B8FF37000E
:1043D800968A020000000000D2F480000201E80082
:1043E800F207B200D2F488000000EB00E1F52100EA
:1043F8001104E00043FC3D00D8FC370094F521008F
:104408001404E000D8043A0011C0B3000140780059
:10441800AA7C020000000000D2F480000201E8003B
:10442800F207B200D2F488000000EB00E1F52100A9
:104438001104E00033FC3D00C8FC370094F521006E
:104448009480FB00000320000088B900660040004B
:1044580085C621006500780000000100D2F48000C4
:104468000201E800F207B200D2F488000000EB0075
:10447800E1F521001104E00022FC3D00B7FC370003
:1044880010C0B30092F60700D2F480000201E800E1
:10449800F207B200D2F488000000EB00E1F5210039
:1044A8001104E00017FC3D00ACFC370090F521003A
:1044B8009080FB00000320000088B9000080E8001D
:1044C80081C621006100780000000100D2F480005C
:1044D8000201E800F207B200D2F488000000EB0005
:1044E800E1F521001104E00006FC3D009BFC3700CB
:1044F80092F52100124078000004E0007F043200A9
:104508008080FB00000320000088B9002002B00072
:1045180083C6210063007800000001005F20970037
:10452800EF2097008E8A020000000000C002A90058
:10453800C202A9002FA89700BFA89700388A0200D6
:1045480000000000E0BB2800F86A0200000000003C
:10455800D2F480000201E800F207B200D2F4880029
:104568000000EB00E1F521001104E000E5FB3D004F
:104578007AFC37005AF50700D2F480000201E800FF
:10458800F207B200D2F488000000EB00E1F5210048
:104598001104E000DBFB3D0070FC37001F8897002A
:1045A800AF889700388A0200000000003A6E0200C7
:1045B800000000005F309700EF309700388A020053
:1045C80000000000E0BB2800F86A020000000000BC
:1045D800D2F480000201E800F207B200D2F48800A9
:1045E8000000EB00E1F521001104E000C5FB3D00EF
:1045F8005AFC3700C0CFB300E3F5210093496000AF
:104608001F989700AF9897008E8A0200000000005C
:10461800D2F480000201E800F207B200D2F4880068
:104628000000EB00E1F521001104E000B5FB3D00BE
:104638004AFC37000201E800F207B200D2F4880011
:1046480084E12100E440790000C2B30080CF50002B
:1046580008003A00014078000201E800F207B200C1
:1046680085E12100E540790080CF5000FAFF320053
:10467800D2F4880083F50700800078000100E90083
:10468800E90F500062043E0070F521000148E9007E
:104698000007EB0094C0B30073F52100934F12009C
:1046A800360332001F209700AF2097008E8A020041
:1046B800000000007F3097008F3897008E8A020034
:1046C80000000000427002000000000090C0B3002B
:1046D80075F52100954F1000DB033200506F020082
:1046E800000000000EC2B3002870020000000000A5
:1046F8008E4F500020FD320028700200000000009C
:104708008E4F5000F8FF3A001BFD37003BF60700BC
:10471800000778000E00E00017FD32009C600200E0
:10472800000000000E07E90013FD32009C60020043
:10473800000000000E07E900F8FF3A000EFD370000
:104748003F889700CF8897008E8A020000000000FB
:1047580090F521009080FB00000320000088B9003C
:104768007200400081C6210061007800000001004D
:10477800D2F480000201E800F207B200D2F4880007
:104788000000EB00E1F521001104E0005DFB3D00B5
:10479800F2FB370019F60700000778003F1897006A
:1047A800CF189700388A0200000000000E00780039
:1047B8003E6D0200000000000E00E0000A0032001A
:1047C80094F521001480FB00050320000580B90042
:1047D8007600400081C621006100780000000100D9
:1047E8000E07E900F6FF3A00E0BB2800F86A02006D
:1047F80000000000D2F480000201E800F207B200D5
:10480800D2F488000000EB00E1F521001104E0007B
:104818003CFB3D00D1FB370094F521009480FB0060
:10482800000320000088B90085C6210065007800D3
:1048380000000100D2F480000201E800F207B20093
:10484800D2F488000000EB00E1F521001104E0003B
:104858002CFB3D00C1FB370090F521001004E0005F
:10486800A6033200C002A900C202A80021E3A800E2
:1048780020002000D26E020000000000A0002000EE
:10488800546A02000000000080007800001B20002D
:10489800808F50000700360090002000546A020004
:1048A8000000000080007800702B2000808F5000EE
:1048B8002D033E00C002A900C202A9003F3897009C
:1048C800CF3897008E8A0200000000002FA89700BA
:1048D800BFA89700388A020000000000E0BB28004B
:1048E800F86A02000000000021E3A900D2F4800069
:1048F8000201E800F207B200D2F488000000EB00E1
:10490800E1F521001104E000FEFA3D0093FB3700B9
:1049180094F521001404E00078033200E2600200FC
:1049280000000000D2F480000201E800F207B200A3
:10493800D2F488000000EB00E1F521001104E0004A
:10494800F0FA3D0085FB370092F521001204E000E3
:104958006A033200E3F521009341780070C06100DA
:10496800EB023200C962A800CB62A9003FA0970001
:10497800CFA09700388A020000000000E0BB2800A2
:10498800F86A02000000000021E3A800B00020003F
:10499800546A02000000000080007800F004200043
:1049A800808F5000D0FF3E001F189700AF18970067
:1049B8008E8A02000000000021E3A900D2F48000E2
:1049C800CBFF370092F521009280FB000003200006
:1049D8000088B9006400400083C6210063007800A5
:1049E80000000100D2F480000201E800F207B200E2
:1049F800D2F488000000EB00E1F521001104E0008A
:104A0800C0FA3D0055FB37001F809700AF80970024
:104A18008E8A02000000000092F521009280FB00BF
:104A2800000320000088B9006E00400083C6210002
:104A38006300780000000100D2F480000201E80061
:104A4800F207B200D2F488000000EB00E1F5210083
:104A58001104E000ABFA3D0040FB3700E5F521000A
:104A68001534A0003F989700CF989700388A020025
:104A780000000000E0BB2800F86A02000000000007
:104A8800D2F480000201E800F207B200D2F48800F4
:104A98000000EB00E1F521001104E00099FA3D0067
:104AA8002EFB3700506E020000000000D2F4800098
:104AB8000201E800F207B200D2F488000000EB001F
:104AC800E1F521001104E0008EFA3D0023FB3700D8
:104AD800C0CFB300E4F52100144060000004A0003A
:104AE800004A78005F989700EF9897008E8A020036
:104AF80000000000D2F480000201E800F207B200D2
:104B0800D2F488000000EB00E1F521001104E00078
:104B18007CFA3D0011FB370038F5070000077800E4
:104B28000E00E00014FC32007A6002000000000071
:104B38000E07E90010FC32007A6002000000000055
:104B48000E07E900F8FF3A000BFC370091F5210049
:104B58001104E000E9023200CB62A900C962A90091
:104B68005FA09700EFA09700388A020000000000BD
:104B7800E0BB2800F86A020000000000D2F48000C0
:104B88000201E800F207B200D2F488000000EB004E
:104B9800E1F521001104E0005AFA3D00EFFA370070
:104BA8000201E800F207B200D2F4880083E1210094
:104BB800E340790000C2B30080CF500008003A00FB
:104BC800014078000201E800F207B20084E1210008
:104BD800E440790080CF5000FAFF3200D2F4880018
:104BE80028F40700800078000100E900E30F500076
:104BF800F4023E0085F52100814AE9003F809700D4
:104C0800CF8097008E8A020000000000D2F4800056
:104C18000201E800F207B200D2F488000000EB00BD
:104C2800E1F521001104E00036FA3D00CBFA370027
:104C38005AF60700D2F480000201E800F207B20039
:104C4800D2F488000000EB00E1F521001104E00037
:104C58002CFA3D00C1FA3700E0F521001034A1001C
:104C68007F9097008F989700388A02000000000014
:104C7800E0BB2800F86A020000000000D2F48000BF
:104C88000201E800F207B200D2F488000000EB004D
:104C9800E1F521001104E0001AFA3D00AFFA3700EF
:104CA800D4F6070092F521001204E000B2FB3200AE
:104CB8005F289700EF289700388A0200000000005C
:104CC800C1BF2A000000EB00B26E02000000000025
:104CD800EA6C0200000000007F2897008F309700E0
:104CE800388A020000000000E1BF2A000000EB0043
:104CF800B26E020000000000EA6C02000000000032
:104D0800E0BB2800F86A0200000000007FA09700BE
:104D18008FA897008E8A02000000000070F3070039
:104D2800C202AB00D80232005F909700EF90970064
:104D3800388A020000000000C0C2B30030700200D0
:104D48000000000000C2B300307002000000000044
:104D5800CB62AB00D80232003FA09700CFA09700EB
:104D6800388A020000000000C0C2B30030700200A0
:104D78000000000000C2B300307002000000000014
:104D8800E3F521009341780070C06100D802320039
:104D98007F8897008F9097008E8A0200000000009D
:104DA800E4F521001442780068406200D8023A0015
:104DB8007F9097008F989700388A020000000000C3
:104DC800C0C2B300307002000000000000C2B3008F
:104DD80030700200000000007F3897008F80970035
:104DE800388A020000000000D5F52100154078003F
:104DF800A46C020000000000E0BB2800F86A020072
:104E080000000000E1F521009140780063C06000D7
:104E1800E14F5000D80232001F989700AF989700D2
:104E28008E8A02000000000092F521009280FB00AB
:104E3800000320000088B9006002B00083C621008A
:104E480063007800000001007FA097008FA89700FA
:104E58008E8A020000000000D2F480000201E800FF
:104E6800F207B200D2F488000000EB00E1F521005F
:104E78001104E000A3F93D0038FA370040F50700B7
:104E88000000E0003CFB3A00D0F48000E0B79F004F
:104E980000017800C1F48000C1B79F000201E8005A
:104EA800F207B200D2F488000000EB00E1F521001F
:104EB8001104E00093F93D0028FA370092F521002B
:104EC8001204E0000D0232005E5A020000000000E9
:104ED800D2F480000201E800F207B200D2F48800A0
:104EE8000000EB00E1F521001104E00085F93D0028
:104EF8001AFA37002A5C020000000000D2F4800091
:104F08000201E800F207B200D2F488000000EB00CA
:104F1800E1F521001104E0007AF93D000FFA3700AD
:104F2800D0FA80000020A000D0FA88000201E80032
:104F3800F207B200D2F488000000EB00E1F521008E
:104F48001104E0006FF93D0004FA37004FA89700FC
:104F5800DFA89700388A020000000000D0F4800023
:104F68000000E800F007B20085E12100E540780084
:104F780080C7B30080CF5000EF0232007440500069
:104F880080CF5000F802320000C0E90080CF500006
:104F9800F10232000040EB00A0E79F0070C7B300A9
:104FA80080CF5000E802320014F4070000077800B0
:104FB80025F407000000E00006003200D1F52100CA
:104FC80080487800E80F50002C0234000101E80006
:104FD8001254A0002FE297000404E00005003200FC
:104FE80085F5210095427800A5D79F0080F521001E
:104FF8000448E9000E00E0002200320091F521008B
:105008001180FB00020320000280B9006A00400002
:1050180083C621006300780000000100E4F5210048
:1050280014427800E840620000013A003E6D020038
:105038000000000002C2B300E1F521001140610048
:105048000401320000C1B300D5F52100954F1000CE
:1050580007003200B0C3B300307002000000000047
:10506800D1F5210011407800A46C02000000000076
:1050780000C2B30030700200000000000E07E90013
:10508800DEFF3A002FE197000204E000D6FD32006F
:105098002FD2970083F5210084497800E0BB2800CF
:1050A800F86A020000000000D2F48000D2FD370048
:1050B800EFB197008301E800E3B79F00800F53002A
:1050C8000C0032000040EB0084E1210000F27A007D
:1050D8008502E900F507B200850F5300F9FF3A0091
:1050E800C6F48800040078000041EB0002707B00E1
:1050F80006007800808F50000F00320083E1210005
:1051080063C178000204E000080032008100E90071
:10511800F107B200808F50000700320084E12100BF
:1051280064C178000204E000F8FF3A008100E8005A
:10513800F107B200D1B79F0070C12800D86A0200F9
:105148000000000095F521009580FB000003200079
:105158000088B9008002B00081C6210000804000AC
:10516800D86A020000000000A2F5210012017800B0
:105178006400610012013A0080C02800D86A020069
:1051880000000000DFB19700888F5100160132003F
:10519800DFB4970084E1210064C07C003070020015
:1051A80000000000C0F4800085E1210069F07A0069
:1051B8000000E800F007B200C0F488008904E800A5
:1051C800F907B200888F5400F2FF3A000007780010
:1051D8008041EB0082E1210003717F00880F5700B6
:1051E8003CF73A0070C0B3003070020000000000C5
:1051F80038F73700E6B79F00808F53000B00320066
:105208000042EB0083E1210084F17A008502E90085
:10521800F507B200858F5300F9FF3A00C7F48800FC
:105228000300780004F07B0007007800808F5000AE
:105238000F00320085E1210065C178000204E0001A
:10524800080032008100E900F107B200808F5000A9
:105258000700320083E1210063C178000204E00006
:10526800F8FF3A008100E800F107B200D1B79F00CB
:1052780070C12800D86A02000000000094F52100DF
:105288009480FB00000320000088B9008002B00071
:1052980085C6210000804200D86A02000000000094
:1052A800A1F521009100780064806000D5003A00E3
:1052B80080C02800D86A0200000000005FB1970093
:1052C800890F5100D90032005FB4970083E12100B3
:1052D80063407C003070020000000000C0F48000D1
:1052E80084E1210068707A000000E800F007B2004D
:1052F800C0F488000804E800F807B200890F5400D9
:10530800F2FF3A00000778008040EB0080E12100BE
:1053180001707F00890F5700EEF63A006FB19700D1
:10532800E10F510048F83A00C0F93700D3F52100E1
:1053380093407800946A02000000000094F5210070
:105348001481FB000E91B9006801410085C6210057
:10535800E500790001000100D0F480000000E800B9
:10536800F007B20082E12100E240780023C2B300D6
:1053780083CF500046FA3A0060FA3700D1F4800033
:1053880085E1210065C1780000C2B300804F51005B
:1053980007003A008100E800F107B20083E121002C
:1053A80063C07800824F5000FAFF3200D1F48800C1
:1053B80034F20700000778000E00E000B9FC3A005C
:1053C800E4F521001474A1005F189700EF18970006
:1053D8008E8A0200000000008001EB00F2FF270027
:1053E8008000EB002002200037F307000007780058
:1053F8001F209700AF2097008E8A0200000000004F
:105408007F3097008F3897008E8A020000000000D6
:10541800427002000000000090C0B30075F5210042
:10542800954F1000ADFC3A0087003700D5F52100F4
:1054380095407800946A0200000000003E6D02006A
:105448000000000002C2B300E1F521001140610034
:10545800FCFE3A0084C0B3008101E900934F1200BA
:1054680003FF3200B0C3B300307002000000000038
:10547800D1F5210011407800A46C02000000000062
:10548800FBFE3700D2F52100924078000900780031
:10549800946A0200000000008004780093F521005F
:1054A8001380FB00040320000480B900680040005A
:1054B80085C62100E5007800090078000100010098
:1054C8008005780000C2B3003070020000000000C0
:1054D80002C4B300E1F5210011406100C6FA3200B0
:1054E800EEFA3700D4F52100944078000B007800DC
:1054F800946A0200000000003E6D020000000000F7
:1055080000C2B3003070020000000000F1FA37005A
:105518003F289700CF2897008E8A020000000000DD
:10552800C962A800CB62A9003FA09700CFA097004E
:10553800388A020000000000E0BB2800F86A020078
:105548000000000021E3A800B0002000546A020017
:105558000000000080007800F0042000808F5000D8
:10556800E1FC3E0010FD37005F909700EF90970038
:10557800388A020000000000E0BB2800F86A020038
:105588000000000090F521009080FB00000320003F
:105598000088B9000002B00081C6210061007800CF
:1055A800000001001F909700AF9097008E8A0200BC
:1055B8000000000021E3A900D2F48000CCFC3700F1
:1055C8006FA89700FFA89700388A02000000000023
:1055D80080C02800D86A020000000000DFB19700F0
:1055E800888F5100EAFE3A00CEF480008041EB003B
:1055F80082E1210003717F00880F570035F63A00D9
:10560800F8FE37006FA89700FFA89700388A0200B5
:105618000000000080C02800D86A020000000000D6
:105628005FB19700890F510027FF3A00CEF4800040
:105638008040EB0080E1210001707F00890F570056
:1056480024F63A0035FF37000E0078004870020053
:1056580000000000506F0200000000000EC2B300FE
:1056680021FC37008904E900F907B200808F540053
:10567800DCF83A00EAF837000804E900F807B20055
:10568800800F540061F73A006FF7370000C8B30085
:1056980000C04000CFE9970003405000A46C02000E
:1056A80000000000E4F521001474A100E0BB28000C
:1056B800F86A020000000000D2F480001000200008
:1056C80090F7370082C0B3008500E900914F1100C0
:1056D8005FFA3200B0C3B30030700200000000006F
:1056E800D5F5210015407800A46C020000000000E8
:1056F800E1F521001140780055FA37000C00BE0092
:105708008E8A020000000000D2F480000201E80046
:10571800F207B200D2F488000000EB00E1F52100A6
:105728001104E00077F73D000CF837001E31020045
:10573800000000007F1897008F2097008E8A0200D3
:1057480000000000CFB29700D5F48800C5F48800A7
:1057580074F73700D08B0200000000008002EB00D5
:1057680085B79F00DBF537005F389700EF38970063
:105778008E8A020000000000D2F480000201E800D6
:10578800F207B200D2F488000000EB00E1F5210036
:105798001104E0005BF73D00F0F737000E07E90061
:1057A800FE07B200CEF488000040EB0085E121003E
:1057B80080727F0080BC2800D86A020000000000C8
:1057C800C4F53700E0F521001074A1003F309700C0
:1057D800CF3097008E8A0200000000008001EB00A5
:1057E80042002000110020001000200036F20700BF
:1057F80081F521008048E9003F809700CF8097001D
:105808008E8A020000000000D2F4800000FD3700FC
:10581800E1F521001174A1003F909700CF90970007
:105828008E8A0200000000008001EB00A200200028
:10583800110020009000200023F2070072F52100DB
:105848000049E9000007EB0094C0B30073F521009C
:10585800934F120093FB3A00C8FE3700E4F521008D
:105868001454A10098B79F00A9B79F00810478003D
:105878009A179F00AB179F00DFF93700E3F5210067
:105888001354A100D3FD37002FA89700BFA8970095
:10589800388A020000000000C0C2B3003070020065
:1058A8000000000000C2B3003070020000000000D9
:1058B800CB62AB0028FD3A005FA09700EFA09700ED
:1058C800388A020000000000C0C2B3003070020035
:1058D8000000000000C2B3003070020000000000A9
:1058E800E3F521009341780070C0610028FD3A007B
